:020000040800F2
:1000000078130020CD010008890600088106000849
:10001000850600087D020008711400080000000039
:100020000000000000000000000000002908000897
:10003000810200080000000011070008B90900084B
:10004000E7010008E7010008E7010008E7010008F0
:10005000E7010008E7010008E7010008E7010008E0
:10006000E7010008E701000885020008E701000831
:10007000E7010008E7010008E7010008E7010008C0
:10008000E7010008E7010008E7010008E7010008B0
:10009000E7010008E7010008E7010008E7010008A0
:1000A000E7010008E7010008E7010008E701000890
:1000B000E7010008E7010008E7010008E701000880
:1000C000E7010008E7010008E7010008E701000870
:1000D000E7010008FD10000885110008E70100088D
:1000E000E7010008E7010008E7010008E701000850
:1000F000E7010008E7010008E7010008E701000840
:10010000E7010008E7010008E7010008E70100082F
:10011000E7010008E7010008C50B0008E701000837
:10012000E7010008E7010008E7010008E70100080F
:1001300000F002F800F03AF80AA090E8000C8244BF
:100140008344AAF10107DA4501D100F02FF8AFF29C
:10015000090EBAE80F0013F0010F18BFFB1A43F0A5
:1001600001031847BC240000DC240000103A24BF1F
:1001700078C878C1FAD8520724BF30C830C144BF0C
:1001800004680C607047000000230024002500264E
:10019000103A28BF78C1FBD8520728BF30C148BFEA
:1001A0000B6070471FB51FBD10B510BD00F033F8D0
:1001B0001146FFF7F7FF01F0E1FA00F051F803B440
:1001C000FFF7F2FF03BC01F055F900000948804732
:1001D00009480047FEE7FEE7FEE7FEE7FEE7FEE729
:1001E000FEE7FEE7FEE7FEE704480549054A064B41
:1001F00070470000BD09000831010008780D00209B
:1002000078130020780F0020780F00207047704787
:10021000704770477047754600F02CF8AE460500F1
:100220006946534620F00700854618B020B5FFF711
:10023000DBFFBDE820404FF000064FF000074FF015
:1002400000084FF0000B21F00701AC46ACE8C009F4
:10025000ACE8C009ACE8C009ACE8C0098D467047FD
:1002600010B50446AFF300802046BDE81040FFF70C
:10027000A6BF000000487047140D002000BFFEE735
:10028000704700002DE9F04786B0102000F0A6F876
:10029000012879D143480068F8B14349888C01F0BE
:1002A00090FE07460022414B01F01CFD81468A4624
:1002B0003F48006801F06EFE07463E4A3E4B01F0A3
:1002C000CFFE4A465346CDE9040101F057FC0546EE
:1002D00001F022FC394908605EE03848006802F00D
:1002E000A7F805460E463049888C01F06AFE07469D
:1002F00000222E4B01F0F6FCCDE902012C480068EB
:1003000001F048FE07462B4A2B4B01F0A9FECDE930
:100310000001DDE9022301F031FC81462A46334623
:1003200001F09CFF234A264BCDE9040101F05CFE5D
:100330002BD22248006802F07BF8CDE904011A496B
:10034000888C01F03EFE07460022184B01F0CAFCE3
:1003500005460E461648006801F01CFE0746154A81
:10036000154B01F07DFE2A463346CDE9000101F030
:1003700005FCCDE90201DDE9042301F06FFF8146B0
:1003800001F0CAFB044601E009E00E4C0E4920468C
:1003900002F07AF80D490860102000F019F806B054
:1003A000BDE8F0871001234200100040006AF840C9
:1003B000380000207B14AE47E17A843F4C000020D7
:1003C000E17A743F0AD7A33B00042648500000207E
:1003D00001490860704700001404014001460020F4
:1003E0000022074B1B6803EA0102054B14331B680C
:1003F0000B4013B10AB1012000E00020704700005B
:1004000000040140002123498279002A3AD00A469B
:10041000126803689A430B461A600A1D1268036843
:100420009A430B1D1A60027911440A6803681A4343
:100430000A60184A0832126803689A43154B083359
:100440001A601A1D126803689A43124B0C331A6023
:100450004279102A0ED11A1F126803681A430D4BF5
:1004600008331A601A1D126803681A43094B0C33CB
:100470001A600DE00749427911440A6803681A437B
:100480000A6005E0027911440A6803689A430A6029
:10049000704700000004014030B500228B071C0F9C
:1004A0000F2303FA04F20B4B8C1053F824309343C0
:1004B000084C8D1044F8253023468C1053F8243016
:1004C0008C07240F00FA04F42343024C8D1044F8E7
:1004D000253030BD080001402DE9F04102460025DD
:1004E0000026002000230024002791F803C00CF010
:1004F0000F0591F803C00CF0100CBCF1000F03D0F5
:1005000091F802C04CEA050591F800C0BCF1000F5B
:1005100031D0146800202BE04FF0010C0CFA00F3EE
:10052000B1F800C00CEA03069E4220D183004FF0D0
:100530000F0C0CFA03F7BC4305FA03FC4CEA040465
:1005400091F803C0BCF1280F06D14FF0010C0CFA52
:1005500000FCC2F814C00AE091F803C0BCF1480FD7
:1005600005D14FF0010C0CFA00FCC2F810C0401C81
:100570000828D1D31460B1F800C0BCF1FF0F34DDFE
:10058000546800202EE000F1080C4FF0010808FA32
:100590000CF3B1F800C00CEA03069E4221D183009F
:1005A0004FF00F0C0CFA03F7BC4305FA03FC4CEABE
:1005B000040491F803C0BCF1280F05D100F1080C28
:1005C00008FA0CF8C2F8148091F803C0BCF1480F87
:1005D00007D100F1080C4FF0010808FA0CF8C2F836
:1005E0001080401C0828CED35460BDE8F081000084
:1005F000F0B50A46002300240021002500F0004643
:10060000B6F1004F02D11D4EF16901E01B4E716839
:10061000C0F3034583B200F44016B6F5401F08D17D
:1006200021F07061154E766826F07066134F7E607B
:1006300012E000F48016B6F5801F06D1032606FAF4
:1006400005F4A14341F0706106E0460D360103FA5E
:1006500006F6B14341F0706122B1460D360103FA4E
:1006600006F6314300F00046B6F1004F02D1034ECA
:10067000F16101E0014E7160F0BD00000000014039
:1006800000BFFEE700BFFEE77047000070B5002125
:1006900000230F22C47804B3154C246804F4E064EA
:1006A000C4F5E064210AC1F10403CA40447804FAA5
:1006B00003F184781440214309010E4C0678A155BA
:1006C000047804F01F050124AC4005786D11AD00DD
:1006D00005F1E025C5F8004109E0047804F01F05A4
:1006E0000124AC40044D0678761145F8264070BDD3
:1006F0000CED00E000E400E080E100E0024901438D
:10070000024A1160704700000000FA050CED00E09D
:100710007047000029B1064AD2690243044BDA61EE
:1007200004E0034AD2698243014BDA61704700005A
:100730000010024029B1064A92690243044B9A61B3
:1007400004E0034A92698243014B9A6170470000BA
:100750000010024030B500210022002400232D4D5E
:100760006D6805F00C0121B1042905D0082923D1B9
:1007700005E0294D056022E0274D05601FE0254D6D
:100780006D6805F47012234D6D6805F48034022500
:1007900005EB92421CB9214D554305600BE01D4D00
:1007A0006D6805F400351DB11C4D5543056002E030
:1007B000194D5543056002E0174D056000BF00BFAD
:1007C000144D6D6805F0F0010909154D6B5C056865
:1007D000DD4045600F4D6D6805F4E061090A104D7C
:1007E0006B5C4568DD4085600A4D6D6805F46051BD
:1007F000C90A0B4D6B5C4568DD40C560054D6D68F1
:1008000005F44041890B074D6B5CC568B5FBF3F5FA
:10081000056130BD0010024000127A0000093D0061
:100820002200002032000020704710B500F002F8CE
:1008300010BD00000CB50020019000903348006806
:1008400040F480303149086000BF3048006800F44F
:10085000003000900198401C0190009818B9019850
:10086000B0F5A06FF1D12948006800F4003010B154
:100870000120009001E0002000900098012843D161
:100880002348006840F010002149086008460068CD
:1008900020F0030008600846006840F0020008608D
:1008A0001A48406819494860084640684860084648
:1008B000406840F4806048600846406820F47C103E
:1008C00048600846406840F4E81048600846006800
:1008D00040F08070086000BF0C48006800F00070B5
:1008E0000028F9D00948406820F003000749486013
:1008F0000846406840F00200486000BF0348406876
:1009000000F00C000828F9D10CBD000000100240D6
:100910000020024010B501200A4908600A49C1F8C8
:10092000AC0100200749083108600749C1F8B4014B
:100930000021064800F00DFB0021044800F00BFBED
:1009400010BD0000B0012442000024420004004019
:1009500010B501200B4908600B49C1F8AC0100201B
:100960000849083108600849C1F8B40140F6C411CB
:10097000064800F0EEFA40F6AC51044800F0EBFAFD
:1009800010BD0000B00124420000244200040040D9
:10099000042808D14FF0E021096941F004014FF02B
:1009A000E022116107E04FF0E021096921F0040124
:1009B0004FF0E022116170477047000010B51348F6
:1009C000006840F00100114908600846406810497D
:1009D00008400E494860084600680E4908400B4927
:1009E00008600846006820F48020086008464068D7
:1009F00020F4FE0048604FF41F008860FFF715FFE9
:100A00004FF000600449086010BD00000010024073
:100A10000000FFF8FFFFF6FE08ED00E030B589B0FA
:100A200005460C4601210846FFF774FE012105200A
:100A3000FFF780FE0320ADF8200018208DF823007A
:100A400003208DF8220008A92148FFF745FDADF8E5
:100A50001850ADF814400020ADF81A00ADF816009B
:100A600005A94FF0804000F079FA6020ADF804004D
:100A70000120ADF806000020ADF80C0001A94FF0F0
:100A8000804000F00BF901A94FF0804000F05CF9C4
:100A900001A94FF0804000F0B7F901A94FF0804064
:100AA00000F00CFA0821C80600F044F90821C80635
:100AB00000F09CF90821C80600F0F6F90821C806E4
:100AC00000F03AFA0121880700F0C1F809B030BD02
:100AD0000008014030B589B005460C4601210220CE
:100AE000FFF718FE012140F20910FFF723FE012154
:100AF0002D48FFF77DFD01212C48FFF779FD3020BF
:100B0000ADF8200018208DF8230003208DF8220076
:100B100008A92748FFF7E0FC4FF4F040ADF82000AB
:100B200010208DF8230003208DF8220008A9214809
:100B3000FFF7D2FC0020204908602049C1F8B40129
:100B400001201D49083908601C49C1F8AC01ADF805
:100B50001850ADF814400020ADF81A00ADF816009A
:100B600005A9174800F0FAF96020ADF8040001204B
:100B7000ADF806000020ADF80C0001A9104800F007
:100B8000E3F801A90E4800F089F808210C4800F0AC
:100B9000D1F808210A4800F029F90121084800F09D
:100BA00056F809B030BD00000002300000081A00FD
:100BB000000C014000200140B80124420000244202
:100BC0000004004010B50121064800F04CF840B187
:100BD0000121044800F038F803480068401C02492D
:100BE000086010BD00100040380000207FB50546A9
:100BF0000C4601211020FFF78DFDADF80850ADF82F
:100C000004400020ADF80A00ADF8060001A90D4827
:100C100000F0A4F9012211460A4800F035F8362008
:100C20008DF8000002208DF8010001208DF80200EF
:100C30008DF803006846FFF729FD0121014800F007
:100C400006F87FBD00100040CA430282704721B100
:100C5000028842F00102028004E002884FF6FE732F
:100C60001A400280704730B502460020002300245D
:100C7000158A05EA0103958905EA010413B10CB14F
:100C8000012000E0002030BD1AB183890B4383812D
:100C900002E083898B4383817047000070B5002494
:100CA00000220023058C4FF6FE7635400584028C29
:100CB0008388048B4FF68F752C40B51E2C400D8811
:100CC0002C43751E2A400D892A434D882A43144D12
:100CD000A8420BD0134DA84208D0134DA84205D00E
:100CE000124DA84202D0124DA84213D14FF6F7750B
:100CF0002A404D892A434FF6FB752A408D882A43A6
:100D00004FF6FF652B404FF6FF552B408D892B4347
:100D1000CD892B4383800483CD888586028470BD72
:100D2000002C0140003401400040014000440140DB
:100D3000004801400A460021018B4FF6F773194025
:100D4000114301837047000070B500240022002386
:100D5000058C4FF6EF7635400584028C8388048B32
:100D600048F6FF752C404FF6FF452C400D884FF696
:100D7000FF7606EA05252C434FF6DF752A400D89DC
:100D800006EA05152A434D8806EA05152A43154D3E
:100D9000A84202D0144DA8421DD14FF67F752A40BB
:100DA0004D894FF6FF7606EA05152A434FF6BF75C3
:100DB0002A408D8806EA05152A434FF6FF352B4059
:100DC0004FF2FF752B408D8906EA85052B43CD89AF
:100DD00006EA85052B4383800483CD88058702843A
:100DE00070BD0000002C0140003401400A46002183
:100DF000018B4FF2FF7319404FF6FF7303EA022392
:100E0000194301837047000070B5002400220023BD
:100E1000058C4FF6FF6635400584028C8388848BF1
:100E20004FF68F752C404FF6FC752C400D882C43E7
:100E30004FF6FF552A400D894FF6FF7606EA052545
:100E40002A434D8806EA05252A43154DA84202D0BB
:100E5000144DA8421DD14FF2FF752A404D894FF61F
:100E6000FF7606EA05252A434FF6FF352A408D888E
:100E700006EA05252A434EF6FF752B404DF6FF7511
:100E80002B408D8906EA05152B43CD8906EA051509
:100E90002B4383808483CD888587028470BD0000C6
:100EA000002C0140003401400A460021818B4FF69E
:100EB000F7731940114381837047000070B5002219
:100EC00000230024058C4EF6FF7635400584038C04
:100ED0008488828B48F6FF752A404FF6FF452A40EA
:100EE0000D884FF6FF7606EA05252A434DF6FF7575
:100EF0002B400D8906EA05352B434D8806EA05355A
:100F00002B430B4DA84202D00A4DA84208D14BF604
:100F1000FF752C408D894FF6FF7606EA85152C4328
:100F200084808283CD88A0F84050038470BD000087
:100F3000002C0140003401400A460021818B4FF211
:100F4000FF7319404FF6FF7303EA022319438183AD
:100F50007047818670470187704700000022028831
:100F60001D4B98420ED01D4B98420BD0B0F1804FD4
:100F700008D01B4B984205D01A4B984202D01A4B0E
:100F8000984204D14FF68F731A404B881A43174B7F
:100F9000984207D0164B984204D04FF6FF431A40B0
:100FA000CB881A4302808B8883850B8803850A4B84
:100FB00098420BD0094B984208D00E4B984205D06E
:100FC0000D4B984202D00D4B984201D10B7A03860B
:100FD0000123838270470000002C0140003401404F
:100FE0000004004000080040000C004000100040D9
:100FF000001400400040014000440140004801400E
:1010000010B501200B4908600B49C1F8AC01002064
:101010000849083108600849C1F8B40140F6C41114
:101020000648FFF796FF41F250410448FFF793FF4F
:1010300010BD0000B0012442000024420004004022
:1010400010B501200B4908600B49C1F8AC01002024
:101050000849083108600849C1F8B40140F67461D4
:101060000648FFF776FF40F6AC510448FFF773FFE0
:1010700010BD0000B00124420000244200040040E2
:1010800010B501200B4908600B49C1F8AC010020E4
:101090000849083108600849C1F8B4014FF4FA71F1
:1010A0000648FFF756FF41F270710448FFF753FFFF
:1010B00010BD0000B00124420000244200040040A2
:1010C00010B501200A4908600A49C1F8AC010020A6
:1010D0000749083108600749C1F8B4014FF47A6143
:1010E0000548FFF736FF00210348FFF734FF10BD26
:1010F000B0012442000024420004004010B540F238
:1011000025511D4800F0A8F810B31B4800F060F905
:10111000C4B21A48008800F40040C8B917480088D3
:1011200000F4804060B10A2C03D0002013490880ED
:1011300020E01248008840F400401049088019E07F
:101140000D2C06D10D48008840F480400B490880E2
:1011500010E00A480088C0F30D0009490C54074804
:101160000088401C0549088008460088C72801DD22
:101170000020088010BD0000003801401C00002045
:101180000C0C002070B50025552640F2255128484A
:1011900000F062F800284AD0254800F019F904460A
:1011A0002448008800F40040002840D1552C01D18B
:1011B000204908801F480088401C1E4908800846B6
:1011C0000088022803D104F00F001B4908801A4947
:1011D000098801EBC10202EB0111184A02EBC101BF
:1011E000144A1288C2F30D028C54124800880B284E
:1011F0001DD102250DE01048008800EBC00101EB75
:1012000000100E4901EBC000405D3044C6B2681CBE
:10121000C5B20B2DEFDBA64203D0002005490880A4
:1012200005E00448008840F400400249088070BD91
:10123000004400401E000020200000205400002038
:1012400021B1828942F40052828104E082894DF604
:10125000FF731A408281704770B502460024002354
:101260000025002040F66A16B14200D100BFC1F34C
:10127000421501F01F03012606FA03F3012D02D1E6
:101280009689334006E0022D02D1168A334001E0F0
:10129000968A33400C12012606FA04F4168834406C
:1012A00013B10CB1012000E0002070BDF0B5034681
:1012B000002400260025002040F66A17B94200D11C
:1012C00000BF1846C1F3421401F01F06012707FAB8
:1012D00006F5012C01D10C3004E0022C01D11030B4
:1012E00000E014301AB107682F43076002E0076876
:1012F000AF430760F0BD00002DE9F04786B005461A
:101300000E460024A24600BFA1460027B08900B1C6
:1013100000BF2F462C8A4CF6FF700440F08804432F
:101320002C82AC894EF6F3100440B0883189084312
:10133000718908430443AC81AC8A4FF6FF400440F6
:10134000B0890443AC8201A8FFF704FA1F48874222
:1013500002D1DDF810A001E0DDF80CA0A88900F4AE
:10136000004040B10AEBCA0000EB0A1031684900A6
:10137000B0FBF1F807E00AEBCA0000EB0A10316895
:101380008900B0FBF1F86420B8FBF0F004012009FB
:10139000642101FB1089A88900F4004040B132208B
:1013A00000EBC900B0FBF1F000F00700044308E0D7
:1013B000322000EB09106421B0FBF1F000F00F00C7
:1013C00004432C8106B0BDE8F087000000380140DE
:1013D00001468888C0F308007047000008B5012165
:1013E0004120FFF7A7F91020ADF8000028208DF864
:1013F000030069460948FFF76FF82020ADF80000A8
:1014000010208DF8030003208DF802006946034880
:10141000FFF762F801200249086008BD001801408A
:10142000940123420EB501210846FFF783F90421F8
:101430000846FFF731F81020019000208DF80800D1
:1014400010208DF8090001208DF80A0001A8FEF790
:10145000D9FF0A208DF8000002208DF801008DF8D8
:10146000020001208DF803006846FFF70FF90EBD5A
:1014700000BFFEE7014600BF7047000010B500F056
:10148000F7F9A9480068012800D100E00020A74929
:10149000096809B9012100E000210840A449096850
:1014A00009B9012100E000210840A249096809B9F1
:1014B000012100E0002108409B490968012900D171
:1014C00000E00021994A1268012A00D100E00022C0
:1014D0001140974A1268012A00D100E00022114011
:1014E000944A12680AB9012200E000221140084320
:1014F0008D490968012900D100E000218B4A12685A
:10150000012A00D100E000221140894A12680AB97C
:10151000012200E000221140864A12680AB9012225
:1015200000E000221140084320B3FFF7C9FD03E0AB
:10153000FFF7C6FD00F09CF97B48006808B9012060
:1015400000E0002079490968012900D100E000216C
:1015500008407749096809B9012100E000210840E5
:101560007449096809B9012100E0002108400028F8
:10157000DED0D7E06C48006808B9012000E0002008
:101580006A49096809B9012100E000210840684959
:101590000968012900D100E0002108406549096877
:1015A000012900D100E0002108405F49096809B91C
:1015B000012100E000215D4A12680AB9012200E021
:1015C000002211405A4A12680AB9012200E00022A2
:1015D0001140584A1268012A00D100E0002211404F
:1015E00008435149096809B9012100E000214F4A27
:1015F0001268012A00D100E0002211404C4A126812
:10160000012A00D100E0002211404A4A1268012A52
:1016100000D100E000221140084320B3FFF730FD65
:1016200003E0FFF72DFD00F023F93F48006808B9FB
:10163000012000E000203D49096809B9012100E0CE
:10164000002108403A490968012900D100E0002141
:1016500008403849096809B9012100E00021084023
:101660000028DED05EE03048006808B9012000E0C4
:1016700000202E490968012900D100E0002108401E
:101680002B490968012900D100E0002108402949BF
:10169000096809B9012100E00021084010B1FFF7F5
:1016A00057F93FE02048006808B9012000E0002019
:1016B0001E490968012900D100E0002108401C49A9
:1016C000096809B9012100E00021084019490968A9
:1016D00009B9012100E00021084010B1FFF7B0FC7A
:1016E00020E01148006808B9012000E000200F49FF
:1016F000096809B9012100E0002108400C49096886
:10170000012900D100E0002108400A49096809B90F
:10171000012100E00021084010B1FFF771FC01E059
:10172000FFF716F910BD00003C000020400000202B
:10173000440000204800002010B56FF00400FFF7BF
:1017400027F90A4800680A49B0FBF1F00949087016
:101750000846007800EB4001C1EBC0104FF6FF7166
:1017600001EAC0000449088010BD0000000000200C
:1017700000127A0014000020160000209124002698
:101780000025FFF7D9FF4FF4A060FEF7B7FF4FF435
:10179000165000F071F94FF4165000F01BF940F2AA
:1017A000CF2140F21F30FFF739F9002142F22730F4
:1017B000FFF790F940F2CF2140F2E730FFF716FA39
:1017C000FFF70CFEFFF72EFE00F0C0F84AE02648B7
:1017D000008800F4004018B324480078632800D142
:1017E000E41E22480078642800D1E41C1F480078D9
:1017F000612803D1FFF78EF8002600251B480078EA
:10180000622803D1FFF73AFE012600251748007829
:10181000652802D100F0BEF8012500201249088099
:10182000A1B24FF08040FFF794FB0EB9012000E019
:1018300000200DB9012100E00021084008B1FFF7A8
:1018400069F8012E01D1012000E000200DB901212D
:1018500000E00021084008B1FFF710FE012D01D182
:1018600000F098F8B3E700001C0000200C0C0020EA
:10187000002000BF4AE02F490968012904D12E4AFF
:1018800002EB0012116007E02A49096821B9002122
:10189000294A02EB001211602649091D0968012935
:1018A00004D1254A02EB0012516008E02149091DCC
:1018B000096821B90021204A02EB001251601D493C
:1018C00008310968012904D11B4A02EB001291601A
:1018D00008E018490831096821B90021164A02EBCD
:1018E0000012916013490C310968012904D1124A90
:1018F00002EB0012D16008E00E490C31096821B9F1
:1019000000210D4A02EB0012D160401C0128B2DB1D
:1019100009490968094A116007494968084A11607C
:1019200005498968074A11600349C968064A116078
:101930007047000000012342D40C00203C0000202E
:1019400040000020440000204800002008B501218C
:101950004020FEF7EFFE0F20ADF8000004208DF8C8
:10196000030003208DF8020069460748FEF7B4FD26
:10197000002006490860091F0860091F0860044923
:10198000C1F8800108BD0000001801408C0123420D
:101990000000234210B501200B4908600B49C1F833
:1019A000AC0100200849083908600849C1F8B401B1
:1019B00040F6B8310648FFF7CCFA4FF47A61044894
:1019C000FFF7C9FA10BD0000B8012442000024420C
:1019D0000004004010B586B0044601214804FEF71B
:1019E00099FE01210420FEF7A5FE0420ADF81400A5
:1019F00003208DF8160018208DF8170005A91C4843
:101A0000FEF76AFD0820ADF8140004208DF81700D9
:101A100005A91748FEF760FD26208DF80000032079
:101A20008DF8010002208DF8020001208DF80300DE
:101A30006846FEF72BFE01940020ADF80800ADF8D3
:101A40000A00ADF80C00ADF810000C20ADF80E0047
:101A500001A90848FFF750FC012240F22551054832
:101A6000FFF724FC01210348FFF7EAFB06B010BD95
:101A7000000801400044004010B586B00446012132
:101A800044F20400FEF756FE4FF40070ADF8140067
:101A900003208DF8160018208DF8170005A91C48A2
:101AA000FEF71AFD4FF48060ADF8140004208DF8A5
:101AB000170005A91648FEF70FFD25208DF8000038
:101AC00003208DF8010001208DF802008DF803003D
:101AD0006846FEF7DBFD01940020ADF80800ADF884
:101AE0000A00ADF80C00ADF810000C20ADF80E00A7
:101AF00001A90848FFF700FC012240F225510548E2
:101B0000FFF7D4FB01210348FFF79AFB06B010BD95
:101B1000000801400038014021F00042A2F160526B
:101B2000B2F5801F01F0004328BFD2F17F6C0BD9C2
:101B30005FEA001C43EAC20242EB507018BF7047D4
:101B400028BF20F001007047B2F5801FBCBF1846C7
:101B500070474FEA410C1CF5001F02D2084600F006
:101B60005ABD70B500F026FB00000089FFF7F6BFF4
:101B70004FF00040A0F580007047000010B591EADA
:101B8000030F48BF83F0004300F17083841A71EBA8
:101B9000030C05D2121943EB0C03001B61EB0C0183
:101BA000DFF824E14FEA1154A4EB135C1EEA430F63
:101BB00018BF9EEA445F73D023EA0E03DCF1200EC7
:101BC00021EA045143F4801332D322FA0CFE10EBC5
:101BD0000E0023FA0CFE41EB0E01CCF1200E03FAAD
:101BE0000EFE10EB0E0051F10001B1F5801FCCF19B
:101BF000200E32D201EB045112FA0EF2BDE8104071
:101C000058BF7047401C38BF5FEA420218BF704798
:101C1000002814BF20F0010041F100014FEA410308
:101C200013F5001F38BF7047A1F1C04100F010BB91
:101C3000012A43EB0302ACF1200CDCF11F0E32BF92
:101C40004FF0000E23FA0CF310EB030041EB0451AC
:101C5000B4EB115FD0D0A1EB045101F5801149081C
:101C60005FEA300001EB04510ED350F1000038BFA1
:101C700012FA0EFE08D1BDE81040C9E7401C38BF7B
:101C80005FEA4202CAD1C3E7BDE810404FEA410310
:101C900013F5001F38BF7047A1F1C04100F0D8BA5A
:101CA0009EEA445F08D011EA5E0FBDE8104004BF11
:101CB00001F0004100207047BDE8104070B500F011
:101CC00079FA00BF64FBBE3E0000E0FF491058BF38
:101CD000C1F140415B1058BFC3F140438B42EFF369
:101CE000008070472DE9C04130B4DFF8A0C23CEA63
:101CF000111418BF3CEA131400F0EC8081EA0305CC
:101D00001CEA111444EAD57418BF1CEA131500F03C
:101D1000C780A4EB05044FF0004545EAC12145EA20
:101D2000C32341EA505143EA525304F17F7499426C
:101D300004F500344FEAC0204FEAC22208BF9042A7
:101D400000F09C804FEA13650FF24016765D4FEA73
:101D5000134506FB05F7C7F1807706FB07F74FEA47
:101D6000D737A7FB03687642C8F58038A7FB06CEB5
:101D700038BFA8F1010807FB08E64FF0000EA6FBEC
:101D8000028CE6FB03CEDCF1000CCEF1004E38BF36
:101D9000AEF1010EA6FB0C584FF000074FF0000506
:101DA000E6FB0E87A1FB08C6A0FB07CE16EB0E06CE
:101DB00045F10005E1FB076515F1E04E7EBFA4F596
:101DC00080345FEA46066D4116F1800745F1000553
:101DD0004FEA17274FEA066647EA0567A6F1DE468F
:101DE000B6F1805F4FEA15251FD9384624F0010C63
:101DF00005EBC471BCF1FE6F01EB0C1102D8F0BC15
:101E0000BDE8008124425CBF01F5801E9EEAC47FCC
:101E100002D4F0BCBDE80081244238D4F0BCA1F16A
:101E2000C041BDE8004100F013BA4FEAD22242EAB5
:101E300043524FEAD323A7FB02864FEAD02040EA61
:101E4000415007FB03661EEA0E0F4FEAD12105FB46
:101E5000026658BFA6EB0056B6EB00564FEA520E8C
:101E60004EEAC37E18EB0E0E56EB530EBDD518EBA3
:101E700002085E417F1C55F10005B6E74FF480155E
:101E80004FF000074FF000064FF00008ADE7F0BC40
:101E90004FF0000001F1C04101F00041BDE80081B8
:101EA00011EA0C1F0CEA131500D00CE013EA0C1F0A
:101EB00000F025804FF00000F0BC81EA030101F042
:101EC0000041BDE80081F0BCBDE8004181EA0301AA
:101ED00000F0BEB9F0BCBDE8004170B500F06AF991
:101EE000097EFC3E00F007B881EA03014FF00000D4
:101EF00001F00041704781EA030100F0A9B9F0BC8C
:101F0000BDE800414FF0000021497047FFFDFBF99B
:101F1000F7F5F4F2F0EEEDEBE9E8E6E4E3E1E0DE1C
:101F2000DDDBDAD8D7D5D4D3D1D0CFCDCCCBCAC88E
:101F3000C7C6C5C4C2C1C0BFBEBDBCBBBAB9B8B7B5
:101F4000B6B5B4B3B2B1B0AFAEADACABAAA9A8A8A8
:101F5000A7A6A5A4A3A3A2A1A09F9F9E9D9C9C9B76
:101F60009A99999897979695959493939291919021
:101F70008F8F8E8E8D8C8C8B8B8A898988888787B2
:101F80008685858484838382828181800000FF0727
:101F90000000F87F10F0004248BF4042B0FA80F3E2
:101FA00010FA03F10AD0C3F11D0303F580634FEA71
:101FB000415002EB035202EBD12170474FF0000079
:101FC0007047B0FA80F310FA03F10AD0C3F11D0391
:101FD00003F580634FEA41504FEA035202EBD121EF
:101FE00070474FF00000704751EA030C17D41CF5FE
:101FF000801F58BFBCF5801F00F10680994218BFB2
:10200000704708BF9042704707D711F5801F58BF2F
:1020100013F5801F19D499427047894270471CF507
:10202000801F08D5BCF5801FF7D58B4218BF7047BD
:1020300008BF824270474FF4001C1CEB410F38BFB1
:102040001CEB430F01D28B42704770B500F0B2F821
:10205000922449004FF000514FF08053FFF736BEF5
:10206000DFF848C170B51CEA111E1EBF1CEA13152B
:102070009EEA0C0F95EA0C0F00F06F8081EA0304D2
:1020800023EA4C134EEAD47E21EA4C1141F480112C
:1020900043F48013AE44A1FB024CA0FB0365AEF1F8
:1020A0007F7E361955EB0C05A1FB034C4CF1000368
:1020B000A0FB021C16EB0C06654153F1000309421C
:1020C00018BF46F0010613F4007F0BD14FEA03312D
:1020D0004FEA0530340341EA155140EA16506FF0DB
:1020E00003020AE04FEAC3214FEAC520F40241EAA5
:1020F000555140EA56506FF0020202EB2E4201EBBE
:10210000025585EACE710AD05FEA440C18BF24F06C
:10211000004450F1000041F1000120EAD47040F287
:10212000FE7C624500D270BDA84214BF4FF08044CF
:102130004FF04044002E08BF0024BEF1806FA8BFBE
:10214000A1F1C041BDE8704080F282804FF00000F4
:1021500001F1C04101F0004170479EEA0C0F0CEA0A
:10216000131518BF95EA0C0F06D04FF0000081EA56
:10217000030E0EF0004170BD00F01CF88900013E16
:1021800000F007B800F009B84FEA430C5FEA5C5C66
:1021900008D081EA030100F05BB84FEA410C5FEA26
:1021A0005C5CF6D14FF00000014970470000FF076A
:1021B0000000F87F0EF1020E2EF0030E5EF8046BA5
:1021C000364205D4012A43EB030515F5001F12D84A
:1021D000012841EB010C1CF5001F0CD80ED14FEA71
:1021E000D17C15F5001F0CEB4C0C0CF1020C08BF58
:1021F0004CEBD37C04E04FF0080C01E04FEAD37CB9
:102200000CEB4C0526FA05F606F00706B6F1040CB1
:1022100006D20EEB860CBDE870404CF0010C604716
:10222000DFE80CF0090B02024FF000414FF0000014
:10223000A1F5002170BD19461046012851EB01049B
:1022400018BFD4F5001484BF002001F0004170BD18
:102250000808A0F500114FEA3101704710B591EA66
:10226000030F48BF83F000433FF590AC841A71EB35
:10227000030C07D212198CF0004C43EB0C03001B2B
:1022800061EB0C01DFF8A4E14FEA1154A4EB135CFD
:102290001EEA430F18BF9EEA445F00F0B08023EAB5
:1022A0006E03524221EA0451C3EB6E0338BF5B1E3A
:1022B000DCF1200E25D322FA0CFE10EB0E0043FABF
:1022C0000CFE41EB0E01CCF1200E03FA0EFE10EBDA
:1022D0000E0051F10001CCF1200E29D412FA0EF2B9
:1022E00001EB0451BDE8104058BF7047401C1CBFB3
:1022F000B2F1004F704700280CBF491C20F00100CC
:10230000704712EB020E43EB030218BF4FF0010EB1
:102310004EEA4202ACF1200CDCF11E0E54D943FA15
:102320000CFE10EB0E0051F1FF31CCF11E0ED5D595
:102330000EF1010E12FA0EFE404141EB010101EBDC
:10234000445C5FEA5C5C10D910EBDE7001EB045179
:1023500038BFBEF1004FBDE8104018BF70470028DD
:102360000CBF491C20F00100704730D24FEAD42C3A
:1023700011F5001124F400641BD0B1FA81F20B3A7C
:10238000A41AA41ED2F12003914030FA03F319439A
:10239000904001EBCC71002C01EB0451BDE81040E2
:1023A000A8BF704701F1C0414FF0000001F00041AB
:1023B0007047B0FA80F310FA03F100D110BDE41AAF
:1023C000173C4805C90AE4E701EB045110BD491068
:1023D00001EB0451BDE810404FEA300002E04FF03D
:1023E000000170474A0008BF0042F8D0B2F5001F54
:1023F00028BF704701F000414FF0000070479EEA8F
:10240000445F07D011EA5E0FBDE8104004BF002111
:1024100000207047BDE8104070B5FFF7CBFE00BF4D
:1024200040DFF63E83F00041104670470000E0FFB9
:1024300043004FEAD30C4FEA3C0C43401FBF400718
:102440000CF1605113F0FE4F70471CF0006F03D188
:1024500000200CF0004170470CF0004343EA50703C
:1024600010B540EACC0000F090F800BF00000092E8
:102470004FEA0001FFF7ECBE4FF000414FF00000C3
:10248000A1F50021704700004FF47F0C1CEAD01228
:102490001EBF1CEAD11392EA0C0F93EA0C0F00F056
:1024A000478090EA010F48BF42F480724FF0004C21
:1024B0004CEA00204CEA012102EB0302A0FB0113CD
:1024C000A2F50002002918BF43F001035B0028BFFA
:1024D0004FEA330342EB22425FEA132C4CEBC2502B
:1024E0002EBFBCEB436FB2F57C0F70474FEA036C15
:1024F000BCF1004F08BF20F00100B2F57C0F38BFDF
:1025000070470BD582F0FF0212F5803FC8BF7047BD
:1025100000F1C040D8BF00F00040704700F5000C4B
:102520005FEA4C0C48BF7047B0F1C04000F073B890
:1025300090EA010F0CEAD11348BF42F48072624561
:1025400038BF634504D280EA010000F000407047C4
:1025500010B500F01AF800BF8900013E00F007B87E
:1025600000F009B85FEA410C5FEA1C6C08D080EA11
:10257000010000F050B85FEA400C5FEA1C6CF6D135
:102580004FF00040A0F5800070470EF1020E2EF0D3
:10259000030E5EF8044B244204D44FEA4102B2F128
:1025A0007F4F11D84FEA4003B3F17F4F0CD80ED1C3
:1025B0004FEAD07CB2F17F4F0CEB4C0C0CF1020CCB
:1025C00008BF4CEBD17C04E04FF0080C01E04FEA6F
:1025D000D17C0CEB4C0324FA03F404F00704B4F1AF
:1025E000040C06D20EEB840CBDE810404CF0010C3C
:1025F0006047DFE80CF0070802024FF00040A0F54A
:10260000800010BD0846420018BFD2F1807288BF1A
:1026100000F0004010BDFF2141EAD050C0057047D6
:102620004026000800000020540000006C01000853
:10263000942600085400002024130000880100089C
:1026400000A24A0400000000000000000102030490
:10265000060708090000000000000000000000005C
:102660000000000000000102030401020304060749
:102670000809020406080000000000000000000035
:10268000000000000000000000000000000000004A
:042690000000000046
:04000005080001CD21
:00000001FF
